:020000040800F2
:10000000C806002005010008AF07000875030008B6
:10001000AB07000859020008970D00080000000017
:100020000000000000000000000000005909000866
:100030005D0200080000000021080008450A0008D1
:100040001F0100081F0100081F0100081F01000810
:100050001F0100081F0100081F0100081F01000800
:100060001F0100081F0100081F0100081F010008F0
:100070001F0100081F0100081F0100081F010008E0
:100080001F0100081F0100081F0100081F010008D0
:100090001F0100081F0100081F0100081F010008C0
:1000A0001F0100081F0100081F0100081F010008B0
:1000B0001F0100081F0100081F0100081F010008A0
:1000C0001F0100081F0100081F0100081F01000890
:1000D0001F0100088D0B00081F0100081F01000808
:1000E0001F0100081F0100081F010008DFF810D0E1
:1000F00000F05AF800F018F800480047E91000082E
:10010000C80600200648804706480047FEE7FEE78D
:10011000FEE7FEE7FEE7FEE7FEE7FEE7FEE7FEE7B7
:10012000550A0008ED00000870B5054C054D03E0C8
:10013000206820448047241DAC42F9D170BD0000E6
:10014000481300084C13000800F020B830B50B46E7
:10015000014600202022012409E021FA02F59D42F7
:1001600005D303FA02F5491B04FA02F52844151ECB
:10017000A2F10102F1DC30BD034870470248001DC6
:10018000011F8860001D70475000002010B500F06E
:1001900020F8016919B100220261884701E08068F6
:1001A0008047AFF300800000064C074D06E0E06892
:1001B00040F0010394E8070098471034AC42F6D3AE
:1001C000FFF798FF281300084813000810B5AFF395
:1001D000008070B5FFF7D2FF04680546A4B920205F
:1001E00000F0D2FF040011D0094900202C60C4E9BE
:1001F00000010849A1602073206160610649A06187
:1002000009B100F00BF8E061204670BDAFF300804B
:1002100000000000CD0100080000000010B588209B
:1002200000F0B2FF002801D00021017010BD80292C
:1002300002D808B1017809B100207047012100F807
:10024000081B704718B100F10802914201D000204C
:10025000704700210170704700BFFEE770472DE92D
:10026000F04102460025002600200023002400273C
:1002700091F803C00CF00F0591F803C00CF0100CBE
:10028000BCF1000F03D091F802C04CEA050591F8CB
:1002900000C0BCF1000F31D0146800202BE04FF0FB
:1002A000010C0CFA00F3B1F800C00CEA03069E4200
:1002B00020D183004FF00F0C0CFA03F7BC4305FA72
:1002C00003FC4CEA040491F803C0BCF1280F06D1EA
:1002D0004FF0010C0CFA00FCC2F814C00AE091F8CF
:1002E00003C0BCF1480F05D14FF0010C0CFA00FC23
:1002F000C2F810C0401C0828D1D31460B1F800C067
:10030000BCF1FF0F34DD546800202EE000F1080C32
:100310004FF0010808FA0CF3B1F800C00CEA03062C
:100320009E4221D183004FF00F0C0CFA03F7BC431F
:1003300005FA03FC4CEA040491F803C0BCF1280F51
:1003400005D100F1080C08FA0CF8C2F8148091F8F5
:1003500003C0BCF1480F07D100F1080C4FF00108B1
:1003600008FA0CF8C2F81080401C0828CED354605C
:10037000BDE8F0813AA000F077FD002000E0401CCD
:100380003A498842FBD33AA000F06EFD002000E01D
:10039000401C36498842FBD338A000F065FD0020A0
:1003A00000E0401C31498842FBD335A000F05CFDE1
:1003B000002000E0401C2D498842FBD330A000F013
:1003C00053FD002000E0401C28498842FBD32DA0AB
:1003D00000F04AFD002000E0401C24498842FBD385
:1003E00027A000F041FD002000E0401C1F4988428A
:1003F000FBD323A000F038FD002000E0401C1B4987
:100400008842FBD320A000F02FFD002000E0401C1C
:1004100016498842FBD31AA000F026FD002000E018
:10042000401C12498842FBD315A000F01DFD00209E
:1004300000E0401C0D498842FBD314A000F014FDDD
:1004400000BF1348006800F4E06012490843001D33
:100450000F490860BFF34F8F00BF00BFFEE70000E9
:1004600048415244204641554C540A00FFFF1F00AA
:10047000526573657420696E20000000330000002F
:100480002E000000320000003100000030000000AB
:100490000CED00E00000FA0570B504460D46164666
:1004A0006006040E00BF4FF40031234800F0DEF870
:1004B0000028F8D10121204800F0C0F800BF1F49F2
:1004C0001D4800F07DF80028F9D0002221461A4886
:1004D00000F060F900BF1A49174800F071F80028D1
:1004E000F9D0002000E0401CFF28FCD311E015F8F3
:1004F000011B114800F057F900BF1149891C0E4833
:1005000000F05EF80028F8D0002000E0401CFF2832
:10051000FCD3301EA6F10101CEB2E8D1012106487C
:1005200000F098F800BF0749034800F09FF8002842
:10053000F9D1012070BD0000005800400100030007
:10054000820007001000001010B586B004461A485B
:1005500000F058F80121880500F064F902940020A9
:10056000ADF80C004BF6FF70ADF80E000020ADF8B2
:100570001000ADF812004FF48040ADF8140002A94D
:100580000D4800F091F801210B4800F02EF80121F0
:10059000082000F067F94FF44060ADF804001C201B
:1005A0008DF8070003208DF8060001A90348FFF726
:1005B00056FE06B010BD000000580040000C01407F
:1005C00070B502460024002500230020958A138B75
:1005D0001B0445EA030626F07F4404EA01068E4226
:1005E00001D1012000E0002070BD21B1028842F05D
:1005F0000102028004E002884FF6FE731A40028076
:100600007047000010B504460B48844209D101210F
:10061000480500F017F900214FF4001000F012F91E
:1006200008E00121880500F00DF900214FF4800059
:1006300000F008F910BD00000054004021B102880C
:1006400042F48072028004E002884FF6FF631A4091
:100650000280704721B1028842F40072028004E0F7
:1006600002884FF6FF531A40028070470CB50246CD
:10067000002000230193009300920B0F019321F0BF
:100680007F41019B1BB1009B1433009303E0090CD5
:10069000009B18330093009B1B680B400BB101209B
:1006A00000E000200CBD00002DE9F04385B00446B9
:1006B0000D460026B1460427DFF8CC80A6884FF609
:1006C000C0700640684600F0DDF8DDF808802F486D
:1006D000B8FBF0F01FFA80F946EA0906A6802088E8
:1006E0004FF6FE710840208000262949286888427C
:1006F0000CD828684000B8FBF0F087B2042F00DA6D
:1007000004273E4309F10100208427E0E8884BF6E6
:10071000FF71884206D1286800EB4000B8FBF0F07A
:1007200087B209E0286800EBC00101EB0010B8FBBC
:10073000F0F087B247F48047C7F30B0008B947F0E1
:10074000010747F4004006434FF4967009FB00F0A0
:100750004FF47A7190FBF1F0401C2084A68320882E
:1007600040F00100208026884FF6F5300640A8882A
:100770006989084306432680A8892989084320817E
:1007800005B0BDE8F083000000127A0040420F007F
:10079000A086010012B141F0010102E04FF6FE73A4
:1007A0001940018270470182704700BFFEE7704721
:1007B00070B5002100230F22C47804B3154C2468BF
:1007C00004F4E064C4F5E064210AC1F10403CA4002
:1007D000447804FA03F184781440214309010E4C53
:1007E0000678A155047804F01F050124AC40057873
:1007F0006D11AD0005F1E025C5F8004109E0047870
:1008000004F01F050124AC40044D0678761145F82C
:10081000264070BD0CED00E000E400E080E100E067
:100820007047000029B1064AD2690243044BDA61DD
:1008300004E0034AD2698243014BDA617047000049
:100840000010024029B1064A12690243044B1A61A2
:1008500004E0034A12698243014B1A6170470000A9
:100860000010024029B1064A92690243044B9A6182
:1008700004E0034A92698243014B9A617047000089
:100880000010024030B500210022002400232D4D2D
:100890006D6805F00C0121B1042905D0082923D188
:1008A00005E0294D056022E0274D05601FE0254D3C
:1008B0006D6805F47012234D6D6805F480340225CF
:1008C00005EB92421CB9214D554305600BE01D4DCF
:1008D0006D6805F400351DB11C4D5543056002E0FF
:1008E000194D5543056002E0174D056000BF00BF7C
:1008F000144D6D6805F0F0010909154D6B5C056834
:10090000DD4045600F4D6D6805F4E061090A104D4A
:100910006B5C4568DD4085600A4D6D6805F460518B
:10092000C90A0B4D6B5C4568DD40C560054D6D68BF
:1009300005F44041890B074D6B5CC568B5FBF3F5C9
:10094000056130BD0010024000127A0000093D0030
:100950000000002010000020704710B500F002F8E1
:1009600010BD00000CB500200190009033480068D5
:1009700040F480303149086000BF3048006800F41E
:10098000003000900198401C0190009818B901981F
:10099000B0F5A06FF1D12948006800F4003010B123
:1009A0000120009001E0002000900098012843D130
:1009B0002348006840F0100021490860084600689C
:1009C00020F0030008600846006840F0020008605C
:1009D0001A48406819494860084640684860084617
:1009E000406840F4806048600846406820F47C100D
:1009F00048600846406840F4E810486008460068CF
:100A000040F08070086000BF0C48006800F0007083
:100A10000028F9D00948406820F0030007494860E1
:100A20000846406840F00200486000BF0348406844
:100A300000F00C000828F9D10CBD000000100240A5
:100A40000020024002480068401C014908607047CD
:100A50002800002010B51348006840F0010011493B
:100A6000086008464068104908400E49486008463A
:100A700000680E4908400B4908600846006820F4E9
:100A8000802008600846406820F4FE0048604FF46B
:100A90001F008860FFF761FF4FF0006004490860A5
:100AA00010BD0000001002400000FFF8FFFFF6FE3E
:100AB00008ED00E010B5012240F22551074800F092
:100AC000D0F8252000F01F02012191404209920038
:100AD00002F1E022C2F8001100BF10BD0038014051
:100AE00010B586B00446012144F20500FFF7BAFEB6
:100AF00018208DF817004FF40070ADF81400032093
:100B00008DF8160005A91348FFF7A9FB04208DF8FE
:100B100017000002ADF8140005A90E48FFF79FFB6F
:100B200001940020ADF80800ADF80A00ADF80C0003
:100B3000ADF810000C20ADF80E0001A9064800F039
:100B4000B5F80121044800F049F8FFF7B3FF06B0FB
:100B500010BD0000000801400038014070B5054696
:100B60000E4600240CE0295D074800F010F900BF94
:100B70000548008800F080000028F9D0601C84B28D
:100B8000B442F0DB70BD00000038014010B540F207
:100B900025510F4800F03BF8C0B10D4800F0F2F8C5
:100BA0000C490D4A1278885400BF8021084800F093
:100BB00021F80028F9D008480078401C0649087040
:100BC00008460078202801DB0020087010BD0000D6
:100BD00000380140A40000202D00002021B18289AE
:100BE00042F40052828104E082894DF6FF731A407C
:100BF0008281704702460020B1F5007F00D100BF1E
:100C000013880B400BB1012000E00020704770B545
:100C10000246002400230025002040F66A16B14257
:100C200000D100BFC1F3421501F01F03012606FAEF
:100C300003F3012D02D19689334006E0022D02D143
:100C4000168A334001E0968A33400C12012606FAD8
:100C500004F41688344013B10CB1012000E00020E8
:100C600070BDF0B50346002400260025002040F6A4
:100C70006A17B94200D100BF1846C1F3421401F00F
:100C80001F06012707FA06F5012C01D10C3004E0FC
:100C9000022C01D1103000E014301AB107682F4344
:100CA000076002E00768AF430760F0BD2DE9F04739
:100CB00086B005460E460024A24600BFA146002786
:100CC000B08900B100BF2F462C8A4CF6FF7004405B
:100CD000F08804432C82AC894EF6F3100440B088AF
:100CE00031890843718908430443AC81AC8A4FF6CB
:100CF000FF400440B0890443AC8201A8FFF7C2FD65
:100D00001F48874202D1DDF810A001E0DDF80CA0F9
:100D1000A88900F4004040B10AEBCA0000EB0A10B9
:100D200031684900B0FBF1F807E00AEBCA0000EBBC
:100D30000A1031688900B0FBF1F86420B8FBF0F0CC
:100D400004012009642101FB1089A88900F40040F6
:100D500040B1322000EBC900B0FBF1F000F0070019
:100D6000044308E0322000EB09106421B0FBF1F0ED
:100D700000F00F0004432C8106B0BDE8F0870000AE
:100D80000038014001468888C0F308007047C1F36D
:100D900008028280704700BFFEE7000010B500F037
:100DA0007BFA4FF4E130FFF79BFE0548FFF7CCFBE1
:100DB00000F00CF800244121024800F01BFA10BD9D
:100DC000400D0300005800400170704700B585B029
:100DD0006846FFF757FD0AA0029900F045F80BA0FE
:100DE000039900F041F80C490298884203D0490069
:100DF0000398884202D1012005B000BD0020FBE726
:100E00000A415042313A2025750A000041504232D1
:100E10003A2025750A0000000051250210B504464D
:100E200000F05CF92168401A6168884204D300F040
:100E300055F92060012010BD0020FCE7416070479B
:100E400010B5040007D1012405E0FFF795F900680B
:100E500000B904488047204600F096F90028F4D0F5
:100E600010BD0000490100080FB4054B10B503A9DF
:100E7000044A029800F05EF810BC5DF814FB000014
:100E8000B91000084C00002002E008C8121F08C179
:100E9000002AFAD170477047002001E001C1121FFB
:100EA000002AFBD17047000010B50820FFF7C8FFEB
:100EB00004460121FFF7C2FF0446184804600820D9
:100EC000FFF7BEFF04460A21FFF7B8FF04461448A7
:100ED00004600820FFF7B4FF04466421FFF7AEFF6B
:100EE0000446104804600820FFF7AAFF0446C82102
:100EF000FFF7A4FF04460C4804600820FFF7A0FF9A
:100F000004464FF47A71FFF799FF044607480460DE
:100F100041210748FFF758FF10BD000030000020B6
:100F200034000020380000203C0000204000002059
:100F3000440000202DE9FF4F89B09B460446002560
:100F400006E025280BD05A460B999047641C6D1C6F
:100F500020780028F5D10DB02846BDE8F08F002795
:100F6000B8460122474900E0074314F8013F203BFF
:100F700002FA03F00842F7D120782E2819D114F88C
:100F8000010F47F004072A280ED06FF02F022078B7
:100F9000A0F1300109290CD808EB880102EB4101CE
:100FA00000EB0108641CF2E70A98641C50F8048BFB
:100FB0000A9020780028CED0642808D0692806D06E
:100FC00075281ED05A460B9990476D1C58E00A9917
:100FD0004FF00A0901C90A91002802DA40422D2186
:100FE00002E0390504D52B218DF82010012103E002
:100FF000F90704D02021F7E78A4608AE0DE000216A
:10100000FAE70A994FF00A0901C90A91F7E7494638
:10101000FFF79CF8303106F8011D0028F7D1ADEB41
:10102000060000F12009780701D44FF00108C845F7
:1010300002DDA8EB090000E000208046002706E062
:1010400008A85A46C05D0B9990476D1C7F1C5745F8
:10105000F6DB04E030205A460B9990476D1CB8F13E
:101060000001A8F10108F5DC05E016F8010B5A466D
:101070000B9990476D1CB9F10001A9F10109F4DC4D
:10108000641C65E70928010070B50446084800782B
:1010900008B900F001F90748056806E0054800684E
:1010A000854202D003480568641E002CF6D170BD4D
:1010B0002C0000202800002070B504460D46E1B247
:1010C0000548FFF764FE00BF0348008800F0800079
:1010D0000028F9D0204670BD003801400148006862
:1010E000704700002800002008B5FFF757FE00BF3A
:1010F00031E01C480068FFF791FE1B480068FFF7CD
:101100008DFED8B11948006840F6FF71884202D1BF
:1011100000201649086015480068C0F5805080B26C
:1011200000901248008883B200224121104800F04C
:1011300094F80E480068401C0C4908600D4800688F
:10114000FFF76CFE18B106210BA0FFF707FD0C4856
:101150000068FFF763FE0B480068FFF75FFE00289A
:10116000C6D0C6E734000020380000204800002028
:10117000005800403C0000203230306D730A0000FF
:101180004000002030000020F0B50B30154D20F05D
:1011900007010024144A0FE003688B420BD38B42F3
:1011A00005D95E1A43184768C3E9006700E0436841
:1011B000136002C004E0021D10680028ECD1204634
:1011C000002802D1286808B10020F0BD064A07486F
:1011D0001060074A121A22F00702C0E90024012019
:1011E0002860D7E7600000205C000020CC000020D1
:1011F000C80200202DE9F84380460D46032601224F
:1012000000212846FFF748F9002444F01007002089
:101210008DF800008DF80170022269462846FFF71C
:101220003BF98DF80160022269462846FFF734F940
:101230008DF80140022269462846FFF72DF901206A
:10124000FFF722FF44F0A1008DF801000222694659
:101250002846FFF721F9BDE8F8832DE9FC418046D7
:101260000D4616461C46089FB000801DC0B28DF882
:101270000000E0B28DF8010020128DF80200F8B2F3
:101280008DF8030038128DF80400052269462846BF
:10129000FFF702F9BDE8FC8138B500208DF80100A8
:1012A0008DF8020001208DF80300FF208DF800006A
:1012B0006846FFF77DFA174800684FF47A72B0FB72
:1012C000F2F1B1F1807F00D31DE021F07F40401E9C
:1012D0004FF0E022506150170F22002807DA130761
:1012E0001D0E0D4B00F00F04241F1D5503E01307C6
:1012F0001C0E0A4B1C5400BF00204FF0E0229061EE
:101300000720106100BF0120054908700020054931
:10131000086038BD1400002018ED00E000E400E093
:101320002C000020280000204C13000800000020A2
:1013300064000000880E0008B0130008640000205C
:1013400064060000980E000861FBFFFF000000002B
:101350000102030401020304060708090204060847
:1013600000A24A0400000000000000000102030483
:10137000060708090000000000000000000000004F
:10138000000000000000000000000000000000005D
:10139000000000000000000000000000000000004D
:1013A000000000000000000000000000000000003D
:04000005080000ED02
:00000001FF
