:020000040800F2
:10000000D006002005010008D9060008B105000847
:10001000D50600082D020008E515000800000000C4
:10002000000000000000000000000000D9080008E7
:10003000870400080000000061070008C5090008E7
:100040001F0100081F0100081F0100081F01000810
:100050001F0100081F0100081F0100081F01000800
:100060001F0100081F0100081F0100081F010008F0
:100070001F0100081F010008310200085502000896
:100080001F0100081F0100081F0100081F010008D0
:100090001F0100081F0100081F0100081F010008C0
:1000A0001F0100081F0100081F0100081F010008B0
:1000B0001F0100081F0100081F0100081F010008A0
:1000C0001F0100081F0100081F0100081F01000890
:1000D0001F0100081F0100081F0100081F01000880
:1000E0001F0100081F0100081F010008DFF810D0E1
:1000F00000F044F800F018F8004800476D180008B8
:10010000D00600200648804706480047FEE7FEE785
:10011000FEE7FEE7FEE7FEE7FEE7FEE7FEE7FEE7B7
:10012000D5090008ED00000870B5054C054D03E049
:10013000206820448047241DAC42F9D170BD0000E6
:10014000181A00081C1A000800F00AB80348704783
:100150000248001D011F8860001D704758000020E4
:1001600010B500F020F8016919B10022026188473A
:1001700001E080688047AFF300800000064C074D27
:1001800006E0E06840F0010394E807009847103467
:10019000AC42F6D3FFF7AEFFF8190008181A0008B2
:1001A00010B5AFF3008070B5FFF7D2FF04680546C5
:1001B000A4B9202001F0A2FB040011D009490020BD
:1001C0002C60C4E900010849A160207320616061CE
:1001D0000649A06109B100F00BF8E061204670BD4E
:1001E000AFF3008000000000A10100080000000043
:1001F00010B5882001F082FB002801D00021017099
:1002000010BD802902D808B1017809B100207047DB
:10021000012100F8081B704718B100F10802914253
:1002200001D00020704700210170704700BFFEE739
:1002300010B54FF4005000F0E9F838B14FF4805099
:1002400000F024F80021024800F02EF810BD000054
:100250004400024010B54FF4003000F0D7F878B1F8
:100260000021094800F020F84FF4803000F00EF82B
:10027000202005495839C8650121034800F014F8C9
:1002800001F01EF910BD00005800024000F080513E
:1002900011B10349086001E002494860704700005D
:1002A000040402400000024021B1026842F0010251
:1002B000026004E002684FF6FE731A400260704765
:1002C00001684FF6FE72114001600021016041603B
:1002D0008160C1604B49884208D14A490839496860
:1002E00041F00F01474A083A51608AE0454914310C
:1002F000884208D143490839496841F0F001414A30
:10030000083A51607DE03F492831884208D13D4993
:100310000839496841F470613A4A083A516070E01E
:1003200038493C31884208D136490839496841F496
:100330007041344A083A516063E032495031884292
:1003400008D130490839496841F470212D4A083AEA
:10035000516056E02B496431884208D12949083957
:10036000496841F47001274A083A516049E025493B
:100370007831884208D123490839496841F07061D1
:10038000204A083A51603CE01F49884206D1011FCB
:10039000096841F00F01021F116032E01A4914315F
:1003A000884208D11849091F096841F0F001164A2E
:1003B000121F116025E014492831884208D11249E2
:1003C000091F096841F470610F4A121F116018E09B
:1003D0000D493C31884208D10B49091F096841F495
:1003E0007041094A121F11600BE0074950318842E1
:1003F00007D10549091F096841F47021024A121FFB
:1004000011607047080002400804024001460020C5
:10041000002201F0805313B1054B1A6801E0054B2F
:100420001A6802EA01030BB1012000E000207047C6
:1004300000040240000002401AB103680B4303604D
:1004400002E003688B430360704710B50022026826
:1004500047F6F0739A430C6A8B6823430C69234375
:100460004C6923438C692343CC6923434C6A23435F
:100470008C6A23431A430260CB6843600B68836035
:100480004B68C36010BD70472DE9F041024600255E
:100490000026002000230024002791F803C00CF060
:1004A0000F0591F803C00CF0100CBCF1000F03D045
:1004B00091F802C04CEA050591F800C0BCF1000FAC
:1004C00031D0146800202BE04FF0010C0CFA00F33F
:1004D000B1F800C00CEA03069E4220D183004FF021
:1004E0000F0C0CFA03F7BC4305FA03FC4CEA0404B6
:1004F00091F803C0BCF1280F06D14FF0010C0CFAA3
:1005000000FCC2F814C00AE091F803C0BCF1480F27
:1005100005D14FF0010C0CFA00FCC2F810C0401CD1
:100520000828D1D31460B1F800C0BCF1FF0F34DD4E
:10053000546800202EE000F1080C4FF0010808FA82
:100540000CF3B1F800C00CEA03069E4221D18300EF
:100550004FF00F0C0CFA03F7BC4305FA03FC4CEA0E
:10056000040491F803C0BCF1280F05D100F1080C78
:1005700008FA0CF8C2F8148091F803C0BCF1480FD7
:1005800007D100F1080C4FF0010808FA0CF8C2F886
:100590001080401C0828CED35460BDE8F0814FF68F
:1005A000FF710180022181700421C1707047000039
:1005B0003AA001F0C7F8002000E0401C3A49884208
:1005C000FBD33AA001F0BEF8002000E0401C364901
:1005D0008842FBD338A001F0B5F8002000E0401CB1
:1005E00031498842FBD335A001F0ACF8002000E08F
:1005F000401C2D498842FBD330A001F0A3F8002015
:1006000000E0401C28498842FBD32DA001F09AF855
:10061000002000E0401C24498842FBD327A001F0C1
:1006200091F8002000E0401C1F498842FBD323A022
:1006300001F088F8002000E0401C1B498842FBD3F1
:1006400020A001F07FF8002000E0401C16498842FD
:10065000FBD31AA001F076F8002000E0401C1249FC
:100660008842FBD315A001F06DF8002000E0401C8B
:100670000D498842FBD314A001F064F800BF134871
:10068000006800F4E06012490843001D0F4908604B
:10069000BFF34F8F00BF00BFFEE700004841524448
:1006A000204641554C540A00FFFF1F0052657365F8
:1006B0007420696E20000000330000002E0000004E
:1006C0003200000031000000300000000CED00E0BE
:1006D0000000FA0500BFFEE77047000070B500217A
:1006E00000230F22C47804B3154C246804F4E0649A
:1006F000C4F5E064210AC1F10403CA40447804FA55
:1007000003F184781440214309010E4C0678A15569
:10071000047804F01F050124AC4005786D11AD008C
:1007200005F1E025C5F8004109E0047804F01F0553
:100730000124AC40044D0678761145F8264070BD82
:100740000CED00E000E400E080E100E0024901433C
:10075000024A1160704700000000FA050CED00E04D
:100760007047000029B1064A52690243044B5A619E
:1007700004E0034A52698243014B5A61704700000A
:100780000010024029B1064AD2690243044BDA61E3
:1007900004E0034AD2698243014BDA6170470000EA
:1007A0000010024029B1064A12690243044B1A6143
:1007B00004E0034A12698243014B1A61704700004A
:1007C0000010024029B1064A92690243044B9A6123
:1007D00004E0034A92698243014B9A61704700002A
:1007E0000010024029B1064AD2680243044BDA6085
:1007F00004E0034AD2688243014BDA60704700008C
:100800000010024030B500210022002400232D4DAD
:100810006D6805F00C0121B1042905D0082923D108
:1008200005E0294D056022E0274D05601FE0254DBC
:100830006D6805F47012234D6D6805F4803402254F
:1008400005EB92421CB9214D554305600BE01D4D4F
:100850006D6805F400351DB11C4D5543056002E07F
:10086000194D5543056002E0174D056000BF00BFFC
:10087000144D6D6805F0F0010909154D6B5C0568B4
:10088000DD4045600F4D6D6805F4E061090A104DCB
:100890006B5C4568DD4085600A4D6D6805F460510C
:1008A000C90A0B4D6B5C4568DD40C560054D6D6840
:1008B00005F44041890B074D6B5CC568B5FBF3F54A
:1008C000056130BD0010024000127A0000093D00B1
:1008D0000000002010000020704710B500F002F862
:1008E00010BD00000CB50020019000903348006856
:1008F00040F480303149086000BF3048006800F49F
:10090000003000900198401C0190009818B901989F
:10091000B0F5A06FF1D12948006800F4003010B1A3
:100920000120009001E0002000900098012843D1B0
:100930002348006840F0100021490860084600681C
:1009400020F0030008600846006840F002000860DC
:100950001A48406819494860084640684860084697
:10096000406840F4806048600846406820F47C108D
:1009700048600846406840F4E8104860084600684F
:1009800040F08070086000BF0C48006800F0007004
:100990000028F9D00948406820F003000749486062
:1009A0000846406840F00200486000BF03484068C5
:1009B00000F00C000828F9D10CBD00000010024026
:1009C0000020024002480068401C0149086070474E
:1009D0002800002010B51348006840F001001149BC
:1009E000086008464068104908400E4948600846BB
:1009F00000680E4908400B4908600846006820F46A
:100A0000802008600846406820F4FE0048604FF4EB
:100A10001F008860FFF761FF4FF000600449086025
:100A200010BD0000001002400000FFF8FFFFF6FEBE
:100A300008ED00E0F0B50C46154600220021068CBA
:100A40004FF6FE773E400684028B018C4FF60C7603
:100A500032407E1C06EA03162E433243104EB0424B
:100A60000ED0104EB0420BD0B0F1804F08D00E4ED9
:100A7000B04205D00D4EB04202D00D4EB04206D16C
:100A80004FF6FD76314044F00106314305E04FF664
:100A9000F576314044F00106314302830184F0BD14
:100AA000002C0140003401400004004000080040D8
:100AB000000C0040F0B50C4615460022002100262F
:100AC000078C4FF6EF7C07EA0C070784028B018C3A
:100AD0004FF6FF7707EA041640F6FF473A404FF615
:100AE000FF7707EA03373A434FF6FF7707EA052710
:100AF0003A43114FB8420ED0104FB8420BD0B0F16C
:100B0000804F08D00E4FB84205D00E4FB84202D0E9
:100B10000D4FB84206D14FF6DF77394046F0100747
:100B2000394305E04FF65F77394044F01007394309
:100B300002830184F0BD0000002C0140003401401C
:100B40000004004000080040000C0040F0B50C46D6
:100B50001546002200210026078C4FF6FF6C07EA9D
:100B60000C070784828B018C4FF6FF7707EA042677
:100B70004FF60C773A404FF6FF7707EA03172F43FB
:100B80003A43114FB8420ED0104FB8420BD0B0F1DB
:100B9000804F08D00E4FB84205D00E4FB84202D059
:100BA0000D4FB84206D14FF6FF57394046F48077D3
:100BB000394305E04FF2FF57394044F48077394319
:100BC00082830184F0BD0000002C0140003401400C
:100BD0000004004000080040000C0040F0B50C4646
:100BE0001546002200210026078C4EF6FF7C07EAFE
:100BF0000C070784828B018C4FF6FF7707EA0436D7
:100C000040F6FF473A404FF6FF7707EA05273A4399
:100C10004FF6FF7707EA03373A43114FB8420ED039
:100C2000104FB8420BD0B0F1804F08D00E4FB842F1
:100C300005D00E4FB84202D00D4FB84206D14DF646
:100C4000FF77394046F48057394305E047F6FF57B0
:100C5000394044F48057394382830184F0BD000059
:100C6000002C014000340140000400400008004016
:100C7000000C004000B587B001210846FFF782FD57
:100C800001210420FFF79EFD06A8FFF788FC032042
:100C9000ADF8180004208DF81B0003208DF81A0011
:100CA00006A91F48FFF7F0FB4FF0804000F0AAF8BC
:100CB00003A800F007FB40F69F70ADF8100000207D
:100CC000ADF80C00ADF81200ADF80E0003A94FF01E
:100CD000804000F0A5FA0A231A460121880700F097
:100CE00085F9684600F0FAF90020ADF80800694679
:100CF0004FF0804000F09CF90121880700F064F873
:100D000001221146900700F0F2F900204FF08041D7
:100D100088840121880700F05AF807B000BD000060
:100D20000008014000B589B001210920FFF74AFD04
:100D300001210220FFF726FD08A8FFF730FC18204C
:100D40008DF823000120ADF8200003208DF822004B
:100D500008A91B48FFF798FB05A800F0B3FA00208C
:100D6000ADF8140040F2CF20ADF818000020ADF827
:100D70001A00ADF8160005A9124800F051FA01A8B2
:100D800000F017FA6020ADF804000120ADF806006D
:100D90000020ADF80A00ADF80C0001A9094800F0E8
:100DA000AFF90121074800F0FBF90121054800F0E7
:100DB0000EF80121034800F016F809B000BD00004C
:100DC000000C014000040040CA430282704721B178
:100DD000028842F00102028004E002884FF6FE73AE
:100DE0001A400280704731B1B0F8442042F400420A
:100DF000A0F8442005E0B0F84420C2F30E02A0F8A9
:100E00004420704710B504466848844208D1012147
:100E1000C014FFF7E7FC0021E014FFF7E3FCC4E097
:100E2000B4F1804F08D101210846FFF7BBFC002137
:100E30000120FFF7B7FCB8E05D48844208D10121EA
:100E40000220FFF7AFFC00210220FFF7ABFCACE073
:100E50005848844208D101210420FFF7A3FC002157
:100E60000420FFF79FFCA0E05348844208D10121F1
:100E70000820FFF797FC00210820FFF793FC94E07F
:100E80004E48844208D101211020FFF78BFC00213D
:100E90001020FFF787FC88E04948844208D10121EF
:100EA0002020FFF77FFC00212020FFF77BFC7CE067
:100EB0004448844208D101214014FFF793FC0021EB
:100EC0006014FFF78FFC70E03F48844209D1012194
:100ED000C804FFF787FC00214FF40020FFF782FCD5
:100EE00063E03A48844209D101210805FFF77AFC02
:100EF00000214FF48010FFF775FC56E0344884421F
:100F000009D101214805FFF76DFC00214FF40010C5
:100F1000FFF768FC49E02F48844208D101214020B6
:100F2000FFF740FC00214020FFF73CFC3DE02A4851
:100F3000844208D101218020FFF734FC0021802069
:100F4000FFF730FC31E02548844208D101218015AB
:100F5000FFF728FC0021A015FFF724FC25E020481E
:100F6000844209D101210804FFF73CFC00214FF421
:100F70008030FFF737FC18E01A48844209D101217C
:100F80004804FFF72FFC00214FF40030FFF72AFC44
:100F90000BE01548844208D101218804FFF722FCA8
:100FA00000214FF48020FFF71DFC10BD002C0140F4
:100FB0000004004000080040000C00400010004009
:100FC0000014004000340140004C0140005001403A
:100FD0000054014000180040001C00400020004068
:100FE000004001400044014000480140F0B50C467B
:100FF00015461E460021002200230189028B038C26
:101000004FF6F877394021434FF6FC473A4040F21B
:1010100001173A434FF6DD773B404FF6FF7707EA7B
:1010200006172F433B43018102830384F0BD000078
:1010300070B505460C46244885420ED023488542AB
:101040000BD0B5F1804F08D02148854205D021480A
:10105000854202D02048854200D100E000BF2088B0
:1010600050B92389A28861882846FFF7E3FCE1880C
:10107000284600F0A8F825E0208804280AD1238912
:10108000A28861882846FFF715FDE188284600F010
:10109000A3F817E0208808280AD12389A28861884C
:1010A0002846FFF753FDE188284600F0A2F809E042
:1010B0002389A28861882846FFF790FDE1882846A9
:1010C00000F0A0F870BD0000002C01400034014089
:1010D0000004004000080040000C00400021018096
:1010E0004180012181800021C180018170471AB1B6
:1010F00083890B43838102E083898B43838170471B
:1011000070B5002400220023058C4FF6FF663540A1
:101110000584028C8388848B4FF68F752C404FF6A4
:10112000FC752C400D882C434FF6FF552A400D8945
:101130004FF6FF7606EA05252A434D8806EA05257F
:101140002A43154DA84202D0144DA8421DD14FF29A
:10115000FF752A404D894FF6FF7606EA05252A439A
:101160004FF6FF352A408D8806EA05252A434EF6BC
:10117000FF752B404DF6FF752B408D8906EA05154E
:101180002B43CD8906EA05152B4383808483CD88C4
:101190008587028470BD0000002C014000340140AE
:1011A0000A460021818B4FF6F77319401143818362
:1011B00070470021018041808180C180018141818F
:1011C0008181C1817047028B4FF6F3731A4002830D
:1011D000028B0A4302837047028B4FF2FF331A409F
:1011E0000283028B4FF6FF7303EA01231A43028343
:1011F0007047828B4FF6F3731A408283828B0A43C7
:1012000082837047828B4FF2FF331A408283828B36
:101210004FF6FF7303EA01231A43828370470000ED
:10122000002202881D4B98420ED01D4B98420BD0D5
:10123000B0F1804F08D01B4B984205D01A4B984212
:1012400002D01A4B984204D14FF68F731A404B8844
:101250001A43174B984207D0164B984204D04FF6CA
:10126000FF431A40CB881A4302808B8883850B8802
:1012700003850A4B98420BD0094B984208D00E4B7D
:10128000984205D00D4B984202D00D4B984201D1A7
:101290000B7A03860123838270470000002C0140F3
:1012A000003401400004004000080040000C0040F1
:1012B0000010004000140040004001400044014084
:1012C000004801404FF6FF71818000210180C180FC
:1012D000418001727047000000B58DB04FF480600E
:1012E000FFF734FA0E208DF8040002208DF8050077
:1012F00001208DF806008DF8070001A8FFF7EEF930
:101300000F208DF8040002208DF8050000208DF8D4
:10131000060001208DF8070001A8FFF7DFF9012181
:101320000846FFF71FFA2E48FEF7CAFF2D48029025
:101330002D48039010200490402005900020069036
:10134000802007900020089009900A904FF44050A8
:101350000B9000200C9002A92148FFF776F8204856
:101360001430FEF7ADFF1F48029020480390002084
:1013700004902020059000200690802007900020F7
:10138000089009900A904FF480500B9000200C9028
:1013900002A913481430FFF758F801211048FEF74E
:1013A00083FF01210E481430FEF77EFF01228021C9
:1013B0000C48001F00F09CF8012240210948001F42
:1013C00000F096F8012202210548FFF735F80122C6
:1013D000022103481430FFF72FF80DB000BD0000C4
:1013E00044000240043801406C000020AC000020A2
:1013F00010B586B00446012144F20500FFF7E2F97A
:1014000018208DF817004FF40070ADF81400032079
:101410008DF8160005A91348FFF736F804208DF85B
:1014200017000002ADF8140005A90E48FFF72CF8CC
:1014300001940020ADF80800ADF80A00ADF80C00EA
:10144000ADF810000C20ADF80E0001A9064800F020
:1014500059F80121044800F03FF8FFF73DFF06B0BE
:1014600010BD0000000801400038014070B505467D
:101470000C4600BF4FF40050FEF7C8FF0D49098825
:10148000012222EAD11108400028F3D100BF04E074
:10149000295C094A1154411C88B2A042F8DB064875
:1014A0000649086508468464012104484430FEF773
:1014B000FBFE70BD003801406C00002000000240BF
:1014C00010B5092101A0FFF7D1FF10BD726563655A
:1014D000697665640A00000021B1828942F40052F5
:1014E000828104E082894DF6FF731A408281704741
:1014F0001AB1838A0B43838202E0838A8B438382FF
:10150000704700002DE9F04786B005460E460024DE
:10151000A24600BFA1460027B08900B100BF2F46F8
:101520002C8A4CF6FF700440F08804432C82AC896E
:101530004EF6F3100440B08831890843718908439E
:101540000443AC81AC8A4FF6FF400440B0890443A9
:10155000AC8201A8FFF756F91F48874202D1DDF897
:1015600010A001E0DDF80CA0A88900F4004040B113
:101570000AEBCA0000EB0A1031684900B0FBF1F831
:1015800007E00AEBCA0000EB0A1031688900B0FBE3
:10159000F1F86420B8FBF0F004012009642101FB9C
:1015A0001089A88900F4004040B1322000EBC90046
:1015B000B0FBF1F000F00700044308E0322000EB3C
:1015C00009106421B0FBF1F000F00F0004432C81FE
:1015D00006B0BDE8F087000000380140C1F3080202
:1015E0008280704700BFFEE710B500F0BDF94FF4F0
:1015F000E130FFF7FDFE00F005F8FFF793FBFFF782
:1016000039FB10BD3148806940F004002F498861E2
:101610002F48006820F470602D4908600846006873
:1016200040F4407008602A481430006840F004001C
:101630002749143108602548806940F00800234993
:1016400088612448006820F00F002249086008469D
:10165000006840F0030008601E481030006840F445
:1016600080701C49103108601848806940F01000F3
:1016700016498861184800686FF30F001649086022
:101680000846006843F233310843134908600846AE
:10169000406940F00F0048610C48806940F040000C
:1016A0000A4988610D48006820F0F0000B49086085
:1016B0000846006840F030000860084814300068B0
:1016C00040F00200054914310860704700100240E4
:1016D00000080140040C01400010014000180140C6
:1016E00082680A401AB142690A43426102E0026913
:1016F0000A430261704710B5044600F0B1F8216852
:10170000401A6168884204D300F0AAF820600120E2
:1017100010BD0020FCE741607047000010B50400D8
:1017200007D1012405E0FEF711FD006800B9044867
:101730008047204600F0E2F80028F4D010BD0000F9
:1017400049010008014A024900F054B8191800087C
:101750005400002002E008C8121F08C1002AFAD174
:1017600070477047002001E001C1121F002AFBD121
:101770007047000010B50820FFF7D0FF0446012194
:10178000FFF7C9FF0446164804600820FFF7C6FFAC
:1017900004460A21FFF7BFFF0446124804600820F0
:1017A000FFF7BCFF04466421FFF7B5FF04460E486F
:1017B00004600820FFF7B2FF0446C821FFF7ABFF23
:1017C00004460A4804600820FFF7A8FF04464FF4C7
:1017D0007A71FFF7A0FF04460548046010BD0000C1
:1017E00034000020380000203C0000204000002091
:1017F000440000202DE9F04116460F46044600251E
:1018000003E03946B047641C6D1C20780028F8D1ED
:101810002846BDE8F081000070B504460D46E1B2EF
:101820000548FFF7DBFE00BF0348008800F080009A
:101830000028F9D0204670BD003801404FF08040AC
:10184000808C00B2054909680844044908600020FA
:101850004FF08041888401480068704730000020C4
:10186000014800687047000028000020FFF7BCFE18
:1018700000BF26E016480068FFF73DFF15480068E6
:10188000FFF739FF14480068FFF735FF60B1042106
:101890001248FFF725FF4FF480711148FFF720FF32
:1018A000FFF7CCFF0F4908600F480068FFF723FFE0
:1018B00038B107210DA0FFF7D9FD0F210D48FFF723
:1018C0000FFF0D480068FFF716FF0028D1D0D1E7C1
:1018D000380000203C0000204000002000080140AB
:1018E000000C014050000020440000203130303016
:1018F0006D730A000010014034000020F0B50B3079
:10190000154D20F007010024144A0FE003688B42B4
:101910000BD38B4205D95E1A43184768C3E90067A9
:1019200000E04368136002C004E0021D1068002854
:10193000ECD12046002802D1286808B10020F0BD73
:10194000064A07481060074A121A22F00702C0E947
:10195000002401202860D7E76800002064000020F0
:10196000D4000020D002002038B500208DF80100FE
:101970008DF8020001208DF80300FF208DF8000093
:101980006846FEF7ABFE174800684FF47A72B0FB6A
:10199000F2F1B1F1807F00D31DE021F07F40401EC5
:1019A0004FF0E022506150170F22002807DA13078A
:1019B0001D0E0D4B00F00F04241F1D5503E01307EF
:1019C0001C0E0A4B1C5400BF00204FF0E022906117
:1019D0000720106100BF012005490870002005495B
:1019E000086038BD1400002018ED00E000E400E0BD
:1019F0002C000020280000201C1A000800000020F5
:101A00006C00000054170008881A00086C000020C1
:101A100064060000641700085DFDFFFF0000000081
:101A20000102030401020304060708090204060870
:101A300000A24A04000000000000000001020304AC
:101A40000607080900000000000000000000000078
:101A50000000000000000000000000000000000086
:101A60000000000000000000000000000000000076
:101A70000000000000000000000000000000000066
:081A800000000000000000005E
:04000005080000ED02
:00000001FF
